:020000040800F2
:10000000500D0020450100087D1600083911000838
:100010007B1600085D0B0008A1210008000000000D
:10002000000000000000000000000000211900088E
:100030005F0B000800000000B3170008E519000876
:100040005F0100085F0100085F0100085F01000810
:100050005F0100085F0100085F0100085F01000800
:100060005F0100085F0100085F0100085F010008F0
:100070005F0100085F0100085F0100085F010008E0
:100080005F0100085F0100085F0100085F010008D0
:100090005F0100085F0100085F0100085F010008C0
:1000A0005F010008191B00085F0100085F010008DC
:1000B0005F0100085F0100085F0100085F010008A0
:1000C0005F0100085F0100085F0100085F01000890
:1000D0005F0100085F010008CD1F0008192000081B
:1000E0005F0100085F0100085F0100085F01000870
:1000F0005F0100085F0100085F0100085F01000860
:100100005F0100085F0100085F0100085F0100084F
:100110005F0100085F0100085F0100085F0100083F
:100120005F0100085F0100085F0100085F0100082F
:10013000DFF80CD000F048FC00480047B943000845
:10014000500D00200648804706480047FEE7FEE7BE
:10015000FEE7FEE7FEE7FEE7FEE7FEE7FEE7FEE777
:10016000E9190008310100082DE9F0410024061BBF
:10017000254671F1000605DA01240027D0EB0700BF
:1001800067EB0101161E73F1000605DA0027D2EBBA
:100190000702012567EB030300F018FB86460E46B5
:1001A00017469C46AC4204D00025D0EB050E65EB0B
:1001B000010624B10020D2EB000760EB030C70466F
:1001C00031463A466346BDE8F081D2B201E000F81C
:1001D000012B491EFBD270470022F6E710B51346EB
:1001E0000A4604461946FFF7F0FF204610BD30B519
:1001F00004460020034600E05B1C934203D2E05C0F
:10020000CD5C401BF8D030BDF0B480EA0102D40FC1
:100210004200B2EB410F02D20246084611464A00A4
:1002200042D0C30DDDB2C1F3C752AD1A202D35DA6D
:10023000C1F3160141F4000204B15242C5F1200697
:1002400002FA06F12A411044B3EBD05F23D0C4B1C7
:10025000012DA0EBC35009DCF0BC4FF0004202EAD4
:10026000C352DBB200F5000000F00BBB400000F110
:10027000807000EBC350A0F1807040EAD17049005B
:1002800009E0490841EAC071A0EBC35000F5000045
:10029000400800EBC350F0BC00F0EABA6142012212
:1002A00002EB4101001BF6E7F0BC704781F0004112
:1002B000AAE780F00040A7E780EA010210B502F04B
:1002C0000043400022D04A001FD0010E01EB126112
:1002D000C0F35600C2F3560240F4000042F400029C
:1002E000A0FB022000047F39140400D0401C50EA17
:1002F000124001D44000491EC2B20C0604EBD010DB
:10030000401C4008802A02D003E0002010BD20F0ED
:100310000100002900DA0020184310BD30B480EA43
:10032000010202F0004530F0004221F0004013D0FD
:1003300090B1C30DD40DC2F31601C0F31600E41A38
:1003400041F4000140F400027D34914201D3641C69
:1003500000E04900002C02DA30BC002070474FF466
:1003600000000023914201D3891A034340084FEA59
:100370004101F7D151B1914202D14FF0004105E066
:1003800002D24FF0010101E06FF0010103EBC45014
:10039000284430BC00F06CBA420005D0C0F3C7520C
:1003A0005242914201DC0020704700EBC15070477F
:1003B0002DE9FE4F804681EA0300C00F0C460090F5
:1003C00021F0004123F00045B8EB0200A94105D21D
:1003D0004046214690461C460B46024623F000400C
:1003E000104347D0270DC7F30A00C3F30A51029008
:1003F000401A019040286BDAC3F3130040F4801BCD
:100400000098924620B10023D2EB030A63EB0B0B5A
:1004100001985946C0F14002504600F008FA0646DD
:100420000D4650465946019A00F010FA10EB0800AC
:100430006141002487EA115284EAE7731A4340D0ED
:10044000009A62B3019A012A4FEA075215DC001B99
:1004500061EB02014FF0004202EA0752CDE900428F
:10046000001C41F5801132462B4600F047FA03B0DC
:10047000BDE8F08F40462146F9E7001B61EB020121
:10048000001C41F5801300185B412018A2F50017ED
:1004900047EB030140EAD570B6196D4111E06D08D4
:1004A0004FEA360645EAC0754FEA0752001B61EB7A
:1004B0000201001C41F5801149084FEA3000001983
:1004C000514132462B4603B0BDE8F04F00F007BA69
:1004D0000098012240000023D0EB020263EBE0739E
:1004E000009821464FEAE074B8EB000061EB04018C
:1004F000E9E783F000435BE781F0004158E72DE92D
:10050000FE4F81EA030404F0004421F0004100940E
:100510004FF0000B23F0004350EA01045ED052EA92
:1005200003045BD0C3F30A54C1F30A552C44A4F26C
:10053000F3340194A0FB0254C1F3130141F4801180
:10054000C3F3130343F4801301FB024400FB034E87
:10055000840A970A44EA815447EA8357A4FB076850
:1005600002958D0A05FB07854FEA932C04FB0C547A
:100570002705029D4FEA065847EA1637B5EB0805EE
:100580006EEB070C870E920E47EA811742EA831240
:10059000A7FB0201B6EB0B0164EB00042B0D43EA51
:1005A0000C335E1844EB1C50DA465146E7FB02015F
:1005B000C5F313044FEA0B3343EA14534FEA0432F2
:1005C000019C43EA0603A4F10C040294009CCDE9CB
:1005D00000B400F093F903B0BDE8F08F00200146AD
:1005E000F9E72DE9F04D81EA030404F0004B21F016
:1005F000004514464FF0000A23F0004150EA05027E
:1006000020D054EA01021DD0C5F30A570246C5F3B3
:100610001303C1F31300C1F30A5640F4801543F4E9
:100620008013A7EB0608101BD64608F2FD3873EBC3
:10063000050002D308F1010801E092185B41B8F10E
:10064000000F03DA00200146BDE8F08D00204FF4D2
:100650008011064684460EE0171B73EB050705D391
:10066000121B63EB050306434CEA010C49084FEAF1
:10067000300092185B4150EA0107EDD152EA0300C5
:1006800012D082EA040083EA0501084305D0101B5A
:10069000AB4106D20122002306E000224FF00043C6
:1006A00002E06FF0010253101AEB06004CEB085108
:1006B00010EB0A0041EB0B01BDE8F04D00F00FB963
:1006C000C10F80EAE0700844CA079623002100F0B9
:1006D000D8B896230022114600F0D3B80EB5C10F4A
:1006E00080EAE0700844CA07002140F233438DE8F5
:1006F0000E000A460B4600F001F903B000BD00F001
:10070000004220F00040C10DC0F3160040F400008C
:100710007F2901DA00207047962903DCC1F1960198
:10072000C84001E096398840002AF4D04042704722
:1007300020F00040C10DC0F3160040F400007F29F6
:1007400001DA00207047962903DCC1F19601C84008
:10075000704796398840704700F0004230F0004002
:100760000AD0C10D01F56071C0F3160042EA0151D3
:10077000C20840071143704700200146704701F04E
:10078000004330B421F0004150EA010206D00A0DC6
:10079000A2F56072C1F31301002A02DC30BC002014
:1007A0007047440F44EAC104C100E01830BC00EBBC
:1007B000C25000F05DB80000002801DBC0F100402D
:1007C000002901DBC1F10041884270472DE9F05F4B
:1007D0000546002092469B468846064681464024B0
:1007E0001BE0284641464746224600F0FFF85346A4
:1007F0005A46C01A914110D311461846224600F0BD
:1008000016F82D1A67EB01084F46224601200021F9
:1008100000F00DF817EB00094E41201EA4F1010471
:10082000DFDC484631462A464346BDE8F09F202A91
:1008300004DB203A00FA02F1002070479140C2F137
:10084000200320FA03F3194390407047202A06DB67
:10085000CB17203A41FA02F043EAE07306E041FA8E
:1008600002F3D040C2F1200291400843194670477C
:100870000029A8BF7047401C490008BF20F00100B4
:10088000704710B4B0FA80FC00FA0CF050EA010492
:1008900004BF10BC704749B1CCF1200421FA04F424
:1008A00011FA0CF118BF012121430843A3EB0C01FD
:1008B000CB1D4FEA00614FEA102042BF002010BC60
:1008C000704700EBC35010440029A4BF10BC704710
:1008D000401C490008BF20F0010010BC704710B553
:1008E000141E73F1000408DA401C41F10001921853
:1008F0005B411A4301D120F0010010BD2DE9F04DFC
:1009000092469B4611B1B1FA81F202E0B0FA80F250
:1009100020329046FFF78BFF04460F4640EA0A005C
:1009200041EA0B0153465A46084313D0114653EA95
:10093000010019D0C8F14002504600F057F80546B2
:100940000E46504659464246FFF771FF084305D010
:10095000012004E020463946BDE8F08D0020054323
:1009600046EAE0762C4337430A986305E40AA0EB95
:1009700008000022FD0A44EA47540A3002D500204C
:100980000146E9E7010510196941DDE9084500194B
:100990006941BDE8F04DA2E770B521F00043034383
:1009A0000CD0C1F30A550024D5EB040564EB040315
:1009B000D617AD1AB34102DB0020014670BD2018E6
:1009C00041EB025170BD0000064C074D06E0E068A7
:1009D00040F0010394E8070098471034AC42F6D386
:1009E000FFF7AAFBE86A0008086B0008202A04DB6E
:1009F000203A21FA02F00021704721FA02F3D04098
:100A0000C2F1200291400843194670472DE9F04D8C
:100A100000231A461B1A8A4103DB00200146BDE869
:100A2000F08DC1F30A52C1F3130141F480154FF068
:100A3000000BD10702D100186D41521E0027044659
:100A400040F2FF11384601EB620A3E4680460246FC
:100A500000204FF48011FFF7C9FFC2197141BB1884
:100A600046EB0100B4EB030C75EB000C04D3E41A65
:100A700065EB000517460E46241908F101006D418B
:100A800080463428E3DDF91946EB0600091BA8412E
:100A900003D24FF0FF32134601E0002213461BEB56
:100AA000070046EB0A51BDE8F04DFFF718BF0EB541
:100AB00040F2334102910021CDE900110A460B4674
:100AC000FFF71CFF03B000BD70B5C1F30A5201F07F
:100AD00000450024C1F3130140F2FF3341F48011BB
:100AE0009A4201DA002070BD40F233439A42A2F2EA
:100AF000334203DC5242FFF779FF00E090402C4381
:100B0000F1D0404270BD70B58C1810F8015B15F043
:100B1000070301D110F8013B2A1106D110F8012B6F
:100B200003E010F8016B01F8016B5B1EF9D12B0794
:100B300005D40023521E0DD401F8013BFAE710F84A
:100B4000013BCB1A921C03E013F8015B01F8015B37
:100B5000521EF9D5A142D8D3002070BDFEE77047E0
:100B60001FB50121084600F065FE0121042000F0B8
:100B70006DFE0320ADF80C0004208DF80F0003A9D2
:100B8000134800F09BF8684601F060F900204FF62A
:100B9000FF71ADF80410ADF80000ADF80600ADF837
:100BA00002004FF080446946204601F001F900231D
:100BB0001A460121204600F0EFFF47F6FF7120465C
:100BC00001F0F4F80121204600F0D1FF1FBD000024
:100BD000000801401FB50121022000F02BFE012179
:100BE000042000F033FEC020ADF80C0004208DF886
:100BF0000F0003A9124800F061F8684601F026F9D9
:100C000000204FF6FF71ADF80410ADF800000D4C58
:100C1000ADF80600ADF802006946204601F0C8F8BC
:100C200000231A460121204600F0B6FF47F6FF7167
:100C3000204601F0BBF80121204600F098FF1FBDBF
:100C400000080140000400401FB50121042000F00D
:100C5000F1FD0121082000F0F9FDC020ADF80C00E5
:100C600004208DF80F0003A9124800F027F8684609
:100C700001F0ECF800204FF6FF71ADF80410ADF86C
:100C800000000D4CADF80600ADF8020069462046A4
:100C900001F08EF800231A460121204600F07CFF67
:100CA00047F6FF71204601F081F80121204600F04F
:100CB0005EFF1FBD000C014000080040F0B5CC787D
:100CC000002204F00F03E40601D58C7823430C784E
:100CD0004FF00F0C14F0FF0F4FF0010E1BD0056802
:100CE0000E880EFA02F42640A64210D196000CFAA5
:100CF00006F725EA070703FA06F5CE783D43282EC6
:100D000002D0482E02D002E0446100E00461521C8F
:100D1000082AE5D305600A88FF2A1CD94468002206
:100D200002F108060EFA06F50E882E40AE420ED1EC
:100D300096000CFA06F7BC4303FA06F7CE783C435C
:100D4000282E00D14561CE78482E00D10561521C75
:100D5000082AE5D34460F0BD4161704701617047E6
:100D60002DE9F047DFF8AC9082460024D9F8001056
:100D700021F0F001C9F80010D9F8001041F080010D
:100D8000C9F80010244E254627464FF00108C6F842
:100D90008071042002F060FBC6F880816006040EBA
:100DA000D6F8040108B1641CE4B2042002F054FB3C
:100DB0006D1CEDB2082DEAD3BAF1000FC6F88071B0
:100DC000D9F80010484621F0F001C9F80010D9F810
:100DD000001041F03001C9F800100FD0C6F884713E
:100DE000032006F5C07602F037FBC6F8008003202A
:100DF00002F032FB37602046BDE8F0874546C6F872
:100E00008481022006F5C07602F026FB35600220C0
:100E1000EEE70000000C0140008021422DE9F04186
:100E200005461648016821F0F0010160016841F0B3
:100E300030010160124E0027C6F880713C464FF029
:100E40000108280602D5C6F8848101E0C6F884713D
:100E50006806050E052002F0FFFAC6F8808105201D
:100E600002F0FAFAC6F88071052002F0F5FA641C67
:100E7000E4B2082CE5D3BDE8F0810000000C01408D
:100E80000080214270B50D48016821F0F001016039
:100E9000016841F030010160094C0120C4F884016F
:100EA000C4F88001042004F5C07402F0D5FA0025CE
:100EB0006560042002F0D0FA256070BD000C01408E
:100EC000008021420E4810B5016821F0F001016058
:100ED000016841F0300101600A4C0020C4F8800133
:100EE000C4F88401042004F5C07402F0B5FA0120AE
:100EF00020606060BDE81040042002F0ADBA000040
:100F0000000C01400080214270B5134800240168A4
:100F100021F0F0010160016841F0800101600F4D96
:100F20000126C5F88461032002F096FAC5F88061B5
:100F3000032002F091FA07E0641CE4B2FA2C03D912
:100F4000FFF7C0FF012070BDD5F804010028F3D1E0
:100F5000C5F8800170BD0000000C014000802142F6
:100F600010B50446FFF78EFFE620FFF757FFFFF7A7
:100F7000CBFF18B1FFF7A6FF002010BD2046FFF7FA
:100F80004DFFFFF7C1FFFFF77DFFE720FFF746FFAB
:100F9000FFF7BAFF0020FFF7E3FE0446FFF792FFDA
:100FA000204610BD70B515460C460646FFF76AFF91
:100FB000E620FFF733FFFFF7A7FF18B1FFF782FF27
:100FC000012070BD3046FFF729FFFFF79DFFFFF7B7
:100FD00059FFE720FFF722FFFFF796FF08E0012CFB
:100FE0000CD00120FFF7BCFE641E05F8010BA4B273
:100FF000002CF4D1FFF766FF002070BD0020F1E760
:1010000010B5FFF73FFFE620FFF708FFBDE81040EF
:10101000FFF758BF70B50C460546FFF733FFE620D3
:10102000FFF7FCFEFFF770FF18B1FFF74BFF012041
:1010300070BD2846FFF7F2FEFFF766FF2046FFF778
:10104000EDFEFFF761FFFFF73DFF002070BD0000E0
:1010500038B50121082000F0F9FB0320ADF80000AD
:1010600010218DF80310064C8DF8020069462046C9
:10107000FFF724FE03212046FFF770FE38BD000075
:10108000000C0140F8B5254D00270097687801282D
:1010900013D1002004F040FB214E002406EB440055
:1010A000417816F81400FFF7B5FF641CE4B21E2C5B
:1010B000F4D3002004F030FB6F706A460221432015
:1010C000FFF770FF002815D1BDF80000002811D0EF
:1010D000102815D00FDC134A01281BD0022815D088
:1010E00004280FD0082805D104200F4928700020BB
:1010F00004F052FAF8BD2028FCD102202870F8BD77
:101100000120FBE7032028700849F0E7052028703C
:101110000749ECE7062028700649E8E7E3000020CD
:10112000EA5B000800401C450000F042000070C26D
:101130000000F041000016C3FEE7000030B5304962
:10114000002301F108020C78082C57D2DFE804F0E4
:1011500004091321292C3239FF2831D101204B6099
:101160002DE0FF284AD14B60137050709370D370FC
:101170001371022023E0412805D0422803D04328E0
:1011800001D044283AD110704A68104448600320C6
:1011900015E0042832D190704868001D4860042092
:1011A0000DE058BB05200AE04B6803444B60D0704B
:1011B000062004E04B6803444B6010710720087060
:1011C00030BD0C79E443E4B24C60844216D10C4843
:1011D000127808300B4CB0F80300412A06D0422A9E
:1011E00006D0432A06D0442A07D105E0608004E0F7
:1011F000A08002E0E08000E020814B600B7030BDF9
:101200003C000020E802002070B50D4C0025C4F819
:10121000B8510C48416821F070414160416841F08B
:1012200040514160C4F8BC51022004F5DC7402F066
:1012300013F901202060022002F00EF9256070BD34
:10124000000022420010014038B50121102000F0BA
:10125000FDFA4FF44044ADF8004010208DF8030033
:101260000320064D8DF8020069462846FFF726FD4B
:1012700021462846FFF772FD38BD000000100140EE
:1012800070B50D4C0026C4F8B8610C48416821F0D7
:1012900070414160416841F0405141600125C4F80E
:1012A000BC51022004F5DC7402F0D6F8256002205F
:1012B00002F0D2F8266070BD00002242001001400A
:1012C0002DE9F047814617480024416821F070411C
:1012D0004160416841F000414160134E2546274678
:1012E0004FF00108C6F8B871022002F0B5F8C6F850
:1012F000B8816006040ED6F83C0108B1641CE4B263
:10130000022002F0A9F86D1CEDB2082DEAD3B9F164
:10131000000F04D0FFF778FF2046BDE8F087FFF705
:10132000AFFFF9E700100140000022422DE9F04133
:1013300005461248416821F070414160416841F022
:10134000405141600E4E0027C6F8B8713C464FF040
:101350000108E809C6F8BC016806050EC6F8B881A0
:10136000022002F079F8C6F8B871022002F074F891
:10137000641CE4B2082CECD3BDE8F08100100140FD
:101380000000224270B50D48416821F07041416073
:10139000416841F040514160094C0120C4F8BC0152
:1013A000C4F8B801022004F5DC7402F055F80025F9
:1013B0006560022002F050F8256070BD0010014009
:1013C000000022420E4810B5416821F07041416092
:1013D000416841F0405141600A4C0020C4F8B80116
:1013E000C4F8BC01022004F5DC7402F035F80120D9
:1013F00020606060BDE81040022002F02DB80000BF
:10140000001001400000224270B5134800244168DA
:1014100021F070414160416841F0004141600F4D51
:101420000126C5F8BC61022002F016F8C5F8B861C3
:10143000022002F011F807E0641CE4B2FA2C03D990
:10144000FFF7C0FF012070BDD5F83C010028F3D1A3
:10145000C5F8B80170BD0000001001400000224234
:1014600010B5FFF7F1FE80216B2000F0BFF864207B
:1014700001F0D8FF00216B2000F0B8F8032000F045
:1014800081F8002000F079F8322000F098F800216F
:10149000382000F0ABF800216A2000F0A7F8002106
:1014A000232000F0A3F88021372000F09FF875205A
:1014B00000F011F8682801D0012010BD01216B2037
:1014C00000F094F800216C2000F090F8322000F039
:1014D00076F8002010BD10B50446FFF753FFD0206A
:1014E000FFF724FFFFF790FF2046FFF71FFFFFF7EE
:1014F0008BFFFFF747FFD120FFF718FFFFF784FFAF
:101500000020FFF7DDFE0446FFF75CFF204610BD1C
:101510002DE9F0411C4615460F460646FFF732FFFF
:101520007006000EFFF702FFFFF76EFF20B1FFF716
:1015300049FF0120BDE8F0813846FFF7F7FEFFF7CD
:1015400063FFFFF71FFF012000EB4600C0B2FFF76B
:10155000EDFEFFF759FF08E0012D0CD00120FFF749
:10156000AFFE6D1E04F8010BEDB2002DF4D1FFF7B4
:1015700029FF0020DEE70020F1E7C006010E1C2055
:1015800000F034B8C006010E1B2000F02FB8BC28B4
:1015900001D3012110E0622801D302210CE02A28A6
:1015A00001D3032108E0142801D3042104E00A2810
:1015B00001D3052100E006211A2000F017B810B56C
:1015C00004464FF47A70844201D9044602E0042CA8
:1015D00000D20424B0FBF4F0401EC1B2192000F088
:1015E00005F86008BDE81040FFF7D1BF70B50C46A4
:1015F0000546FFF7C7FED020FFF798FEFFF704FF70
:1016000050B92846FFF792FEFFF7FEFE2046FFF78F
:101610008DFEFFF7F9FE18B1FFF7D4FE012070BD73
:10162000FFF7D0FE002070BD2DE9F0411D461646A3
:101630000C460746FFF7A6FE7806000EFFF776FE7B
:10164000FFF7E2FE60B92046FFF770FEFFF7DCFE11
:1016500000240CE0285DFFF769FEFFF7D5FE20B1FE
:10166000FFF7B0FE0120BDE8F081641CE4B2B44293
:10167000F0D3FFF7A7FE0020F5E7FEE77047000074
:1016800030B50F23C27801780125F2B1144A1268EF
:1016900001F1E02102F4E062C2F5E062120AC2F157
:1016A0000404D3404278A24084781C4014432201B1
:1016B00081F80024007800F01F018D40400980006F
:1016C00000F1E020C0F8005130BD01F01F0085405E
:1016D0004809800000F1E020C0F8805130BD0000D2
:1016E0000CED00E002490843024908607047000021
:1016F0000000FA050CED00E02DE9F04190460A46A5
:10170000044641461046FEF7D1FDE0600546A1695A
:10171000FEF7CCFD0746606129462068FEF7CCFD48
:101720000646A06294F83800FEF7D3FF6168FEF722
:10173000C3FD2169FEF7C0FD0546E0623946A06899
:10174000FEF7BAFD0746206329463046FEF75CFDEA
:101750003946FEF759FD60634046216AFFF72CF8D1
:1017600006D3206A414680F00040FFF725F803D2F7
:10177000002084F8380018E0012084F83800D4E90B
:101780000310FEF741FD2061616AFFF715F801D2F1
:10179000606A2061606A216980F00040FFF70CF800
:1017A00003D2606A80F000402061E068A061BDE87B
:1017B000F08170472DE9F04F164D0021164FDFF8EC
:1017C0005C90DFF85CC0DFF85CA0DFF85CB0DFF8AD
:1017D0005CE0174E0B4605F1B408C1EB011205EBB6
:1017E0008200491C80F83830C0E9087945F822C0E9
:1017F0004360836008EB8200C9B280F83830C0E9EA
:1018000008AB48F822E0466086600329E5D3BDE8CE
:10181000F08F000074010020000016430000964481
:101820000000204200007A44000096439A99993FB4
:10183000CDCCCC3D044A0029D16901D0014300E060
:101840008143D1617047000000100240044A002922
:10185000916901D0014300E081439161704700002C
:101860000010024030B5204A5168204B11F00C01A5
:1018700003D0042901D0082901D0036012E0516887
:10188000536801F470114FF0020413F4803F04EB2D
:10189000914102D053689B0301D5154B00E0134BD7
:1018A0005943016051680F2303EA1111114B5C5C2D
:1018B0000168E14041605468072505EA14241C5D75
:1018C00021FA04F48460546805EAD4241B5DD940ED
:1018D000C1605268032303EA9232064B1B1F9A5CD5
:1018E000B1FBF2F1016130BD0010024000127A003C
:1018F00000093D002C000020084800F11401027886
:101900000A7042784A7082788A70C278CA704268D7
:101910004A6082688A60C068C860704728070020F3
:10192000704700000CB50022264800920192016821
:1019300041F4803101604FF4A063016801F400318B
:1019400001910099491C0091019911B9009999429E
:10195000F3D10168890333D5012101911A490A683D
:1019600042F010020A600A6822F003020A600A6864
:1019700042F002020A60416841604168416041688A
:1019800041F480614160416821F47C11416041680B
:1019900041F4E8114160016841F080710160016823
:1019A0008901FCD5416821F003014160416841F0A3
:1019B000020141604168C1F381010229FAD10CBDE5
:1019C00001920CBD00100240002002404FF0E021C7
:1019D0000428086903D020F004000861704740F033
:1019E0000400FAE7704700000F4810B5016841F0A5
:1019F0000101016041680D4A1140416001680C4AD3
:101A000011400160016821F480210160416821F4E6
:101A1000FE0141604FF41F018160FFF783FF05491C
:101A20004FF00060086010BD001002400000FFF899
:101A3000FFFFF6FE08ED00E070B501218AB0C80294
:101A4000FFF704FF01210420FFF700FF4FF4E060DF
:101A5000ADF8200018208DF8230003208DF8220017
:101A600008A92B48FFF72AF940F2E730ADF8140037
:101A700002200024ADF81000264EADF81640ADF857
:101A800012408DF8184004A9304600F091F97020FA
:101A9000ADF800000125ADF80250ADF80640ADF8F4
:101AA00008406946304600F0A7F86946304600F025
:101AB000E9F86946304600F02FF90821304600F079
:101AC000DBF80821304600F01DF90821304600F00F
:101AD00061F90121304600F054F8012211463046E8
:101AE00000F081F819208DF81C008DF81D408DF84C
:101AF0001E508DF81F5007A8FFF7C2FD0121304688
:101B000000F028F80121304600F031F80AB070BD2D
:101B100000080140002C014010B50C4C012120466A
:101B200000F055F800280FD00121204600F01CF8E5
:101B300007490878401CC0B20870062804D300206A
:101B400008704868401C486010BD0000002C01402F
:101B5000580100200029018802D041F0800101E0F5
:101B600021F0800101807047C9430182704700293C
:101B7000018802D041F0010101E021F00101018062
:101B80007047002930F8441F02D041F4004101E0C1
:101B9000C1F30E010180704770B50589048B068C76
:101BA00025F007050D434FF6FC410C4040F20111B2
:101BB0000C434FF6FF7101EA031126F02206114390
:101BC000314305810483018470BD808C70470246D7
:101BD0000020138A92890B4202EA010202D0002AF5
:101BE00000D001207047002A828901D00A4300E01A
:101BF0008A4382817047000030B5028C22F00102D6
:101C00000284028C8388048B22F0020224F0730584
:101C10000C882C430D8915434A882A43114DA8424C
:101C20000BD0114DA84208D0104DA84205D0104D40
:101C3000A84202D00F4DA8420DD122F008054A89D2
:101C400023F440732A4322F004058A882A438D89AD
:101C50001D43CB892B4383800483C98881860284FA
:101C600030BD0000002C0140003401400040014024
:101C70000044014000480140028B22F008020A4360
:101C80000283704770B5028C22F010020284028C2D
:101C90008388048B0D8824F4E6464FF6FF7404EA2B
:101CA000052535430E8922F0200204EA0616164364
:101CB0004A8804EA02123243104EB04202D0104E5B
:101CC000B04215D122F080064A8923F4406304EA29
:101CD0000212324322F040068A8804EA021232439A
:101CE0008E8904EA86061E43CB8904EA83033343C4
:101CF00083800583C9880187028470BD002C014060
:101D000000340140028B4FF6FF7322F4006203EAB5
:101D1000012111430183704770B5028C22F4807257
:101D20000284028C8388848B0D8824F073042543FD
:101D30000E894FF6FF7422F4007204EA0626164359
:101D40004A8804EA02223243104EB04202D0104EBA
:101D5000B04215D122F400664A8923F4405304EAC4
:101D60000222324322F480668A8804EA0222324345
:101D70008E8904EA06161E43CB8904EA0313334313
:101D800083808583C9888187028470BD002C0140CF
:101D900000340140828B22F008020A43828370479C
:101DA00081867047018770478187704781847047BB
:101DB00030B502881B4C1C4DA0420DD0A8420BD060
:101DC000B0F1804F08D0194B984205D0184B98427B
:101DD00002D0184B984203D122F070034A881A436C
:101DE000154B984206D0154B984203D022F440730D
:101DF000CA881A4302808A8882850A880285A0429E
:101E00000AD0A84208D00E4A904205D00D4A90420E
:101E100002D00D4A904201D1097A018601218182C6
:101E200030BD0000002C014000340140000400409F
:101E300000080040000C004000100040001400406A
:101E40000040014000440140004801404FF6FF714E
:101E5000818000210180C1804180017270470000B3
:101E60002DE9FF4F894685B0144653491846FEF7C1
:101E700023FAFEF771FC074688462046FEF76CFC05
:101E8000824603910E4655464C491298FEF7BCF91E
:101E90004B49FEF743FA4B49FEF70EFAFEF75CFC9E
:101EA0000446019103F0B2FD2A463346FEF727FBB4
:101EB000834648460091FEF74FFC81460E4602914C
:101EC0004D462046019901F041FA81F000412A4631
:101ED0003346FEF714FB5A46009BFEF70AFB4346C7
:101EE0003A46FEF765FAFEF74AFC374C5546344948
:101EF0002060039E1298FEF711FA3249FEF7DCF9D2
:101F0000FEF72AFC8346049103F080FD2A463346FF
:101F1000FEF7F5FACDE900014D465846029E0499B8
:101F200001F014FA2A463346FEF7E9FADDE9002308
:101F3000FEF73EFA43463A46FEF73AFAFEF71FFC32
:101F40006060009747464E461C48DDF808801299AD
:101F5000FEF7ACF91A49FEF7E1F91A49FEF7ACF9B8
:101F6000FEF7FAFB0546019101F0F0F932464346CF
:101F7000FEF7C5FA81468B46D0462846039E019956
:101F800003F044FD42463346FEF7B9FA4A465B4643
:101F9000FEF7AFFA3B46009AFEF70AFAFEF7EFFBB0
:101FA000A060A4F168020599D2E91A320B60C1E978
:101FB000012009B0BDE8F08F000020410000704210
:101FC00000003443DA0F4940DC02002070B50F4DA9
:101FD00040F225542146284600F051F878B1281DDA
:101FE00001880C480A4BC2699954521CC261B2F56F
:101FF000806F01D30021C1610169491C0161214643
:102000002846BDE8704000F023B8000000440040BE
:1020100010030020300100200A4810B50088800617
:102020000ED50848001D0088084C0749C0B2226838
:102030008854FFF783F82088401CC0F30800206014
:1020400010BD0000004800404C0700206001002047
:102050000A0A01219140C943018070470029818902
:1020600002D041F4005101E021F400518181704718
:102070000246002012880A4200D00120704770B545
:1020800001F01F0501260024C1F3421306FA05F2F0
:10209000012B0FD0022B0FD0838A4FEA1121008829
:1020A000134206FA01F600EA060001D000B101244D
:1020B000204670BD8389F0E7038AEEE710B5C1F3CF
:1020C000421301F01F040121A140012B07D0022B74
:1020D00007D01430002A026805D00A4304E00C300F
:1020E000F8E71030F6E78A43026010BD30B50446C9
:1020F000008A85B00D464CF6FF710840E98801431F
:102100002182A0894EF6F3110840A9882A8911433B
:102110006A8902431143A181A08A4FF6FF4108401A
:10212000A9890143A1826846FFF79CFB19488442B4
:1021300001D1039800E00298A189090400EBC001D5
:1021400001EB0010296801D5490000E08900B0FBCF
:10215000F1F06422B0FBF2F109010B096FF01805F0
:102160006B4300EB8300A3891D044FF0320306D5B7
:1021700003EBC000B0FBF2F000F0070005E003EB5A
:102180000010B0FBF2F000F00F000843208105B012
:1021900030BD000000380140C1F308018180704764
:1021A000FEE700000FB4054B10B503A9044A0298DE
:1021B00000F054FB10BC5DF814FB0000E93D000882
:1021C00054010020490050EAC12018BF04204A0DE4
:1021D00018BF40F0010040F2FF72B2EB515F08BF40
:1021E00040F00200012808BF052070472DE9F74F95
:1021F000144694B00021C4E902111599079121F009
:102200000045C9498D4206DC1599C4E9000117B0A3
:102210000020BDE8F08FC549DFF814A3A9423CDDDA
:102220000799C44E0029C44FC44A1599534619DD75
:10223000FEF75FF9554506D0C14AC24BFEF759F982
:10224000C4E900010AE04FF0D352BE4BFEF751F94A
:1022500032463B46FEF74DF9C4E9000117B00120B4
:10226000BDE8F08FFEF7A4F8554506D0B44AB54B4B
:10227000FEF79EF8C4E900010AE04FF0D352B14BDB
:10228000FEF796F832463B46FEF792F8C4E90001A5
:1022900017B04FF0FF30BDE8F08FAB49A942159958
:1022A00078DB21F0004183468846A84AA84BFEF718
:1022B00026F90022A74BFEF77BF8FEF705FC0990F4
:1022C000FEF70CFA06460F469C4A5346FEF717F9EE
:1022D00043465A46FEF710F980468A46984A994B7B
:1022E00030463946FEF70BF92A0D01250B9242467E
:1022F0005346FEF701F9032DC4E9000139D00B98CC
:10230000C1F30A51401A05EB45111139814230DA07
:102310009148C346784400EB0510CDF80CA00C9012
:10232000D0E9002330463946FEF7E9F802460B466D
:102330000491069058460399FEF7DBF880468A46DA
:1023400002460B4658460399FEF7D3F8049B069ABB
:10235000FEF7CFF883460C9803913946D0E9022363
:102360003046FEF7CCF85A46039BFEF7C2F86D1CC8
:10237000BDE707980028A2BF099817B0BDE8F08F05
:10238000616881F000416160099817B04042BDE882
:10239000F08FFFE784461598C1F31301C0F30A508C
:1023A000A0F2F5304FEA601800F01F06C6F12000D9
:1023B000139000200690079041F4801E05206D4682
:1023C00076B1664A08EB00017A4452F8213002EBFC
:1023D0008101B3404A68139922FA01F1194305E0DB
:1023E0005F4908EB0002794451F82210A1FB0E2747
:1023F000A1FB0C131A449A4234BF0123002303EBC0
:10240000070A05EB8003D3E901B70F448F4234BFBD
:102410000121002193448B4411B1934502D903E07B
:10242000934501D2012100E00021C3E901B75144E5
:1024300045F82010011EA0F10100C1DC0298059FA3
:1024400000F10050800F12900298DDE903568000E1
:10245000FEF744F9834628460D91FEF728FB6FF0FE
:102460001D02FEF799FACDE90E013046FEF71FFB7B
:102470006FF03D02FEF790FA80468A463846FEF736
:1024800016FB6FF05D02FEF787FA07464246534699
:102490001191FDF78DFFDDE90E23FDF789FF5A4607
:1024A0000D9BFDF785FF00250E465A4628460D9BDD
:1024B000FEF71FF8DDE90E23FEF71BF842465346F0
:1024C000FEF717F83A46119BFEF716F8DFF898A0CA
:1024D000244A5346FEF713F807468846234A244BFE
:1024E00031462846FEF70BF83A464346FDF760FFB3
:1024F000074688464FF0A842534631462846FDF726
:10250000FEFF3A464346FDF753FF159A12F0004F7F
:1025100004D0129A81F0004152421292C4E90001A3
:10252000129817B0BDE8F08FFB21E93F7CD902403B
:10253000FB21F93F7370032E8A19A33B000040541E
:102540003163621A61B4D03DFB21394183C8C96D42
:10255000305FE43F0000E03F904600000C46000082
:10256000EE450000182D4454FB21F93D3326A611F9
:10257000460B113C2DE9FF4D21F0004807460C4663
:10258000B8F1795F08DAFEF79FFA002801BF002052
:10259000324904B0BDE8F08D3A462346104619464C
:1025A000FDF7ADFF054602462D480E460B460621B7
:1025B000784400F05DF82A463346FDF7A0FFDDE9D8
:1025C000022382468B4638462146FDF798FF044693
:1025D0000F4652465B4628463146FDF790FF22469D
:1025E0003B46FDF786FF07468A464FF0FF322846F6
:1025F0003146FEF7D1F91B4A90450ADA3A4653466E
:10260000FDF777FF04B00022BDE8F04D134BFDF756
:1026100073BF154A4245A8BFA8F500154FF0000446
:10262000B8BF124D22462B46FDF763FF064688468B
:1026300022462B4600200949FDF75BFF04460D4664
:102640003A46534630464146FDF753FF04B0224612
:102650002B46BDE8F04DFDF74FBF00000000F03FF6
:10266000BC4300003333D33F0000E93F0000D23FBA
:102670002DE9F0414F1E00EBC7010446D1E90001EE
:1026800015461E4637F006020DD02A463346FDF7A2
:1026900036FF7F1E04EBC703D3E90023FDF788FE56
:1026A00037F00602F1D1022F25D0042F13D0062FC8
:1026B00018BFBDE8F0812A463346FDF720FFD4E974
:1026C0000A23FDF775FE2A463346FDF718FFD4E9C5
:1026D0000823FDF76DFE2A463346FDF710FFD4E9C7
:1026E0000623FDF765FE2A463346FDF708FFD4E9C9
:1026F0000423FDF75DFE2A463346FDF700FFD4E9CB
:102700000223FDF755FE2A463346FDF7F8FED4E9CD
:102710000023BDE8F041FDF74BBE00002DE9FF4D61
:10272000054621F0004084B00C46B0F1795F0BDA29
:102730002846FFF747FD042808BF00F071F8284637
:1027400008B02146BDE8F08D2A460B461046FDF73D
:10275000D6FE06460F462A462346FDF7D0FE8046A3
:1027600026488A4632463B4605217844FFF780FFDB
:1027700083461098029160B3214A224B404651464D
:10278000FDF7BDFECDE900015A4640465146029B89
:10279000FDF7B5FE82468846DDE906014FF0FF32BF
:1027A000FEF7FAF852464346FDF7A3FE32463B4693
:1027B000FDF7A5FEDDE90623FDF79BFEDDE900231D
:1027C000FDF797FE08B02A462346BDE8F04DFDF719
:1027D00093BE0B465A4630463946FDF790FE084AEE
:1027E000084BFDF7E5FD42465346FDF788FE08B06D
:1027F0002A462346BDE8F04DFDF7DABD024300004E
:10280000495555555555C5BF0122FEF7C5B8FDF7C9
:10281000CFBD0022134610461146FDF7E2BE000070
:10282000024A00201107FEF7B7B8000001FDFFFFC4
:1028300002E008C8121F08C1002AFAD17047704789
:10284000002001E001C1121F002AFBD170470000E7
:102850000149086070470000640100202DE9FF4F26
:102860008DB00F460546002606E025280BD0DDE991
:102870000F1290476D1C761C28780028F5D111B0F6
:102880003046BDE8F08F0024A246A1460122EC4963
:1028900000E0044315F8013F203B02FA03F0084230
:1028A000F7D128782A2810D06FF02F022878A0F1CD
:1028B0003001092914D80AEB8A0102EB410144F0E6
:1028C000020400EB010A6D1CF0E701CF5FEA000A89
:1028D00003D544F40054CAF1000A44F002046D1C0C
:1028E00028782E2817D115F8010F44F004042A285F
:1028F0000ED06FF02F022878A0F1300109290AD8F4
:1029000009EB890102EB410100EB01096D1CF2E7C3
:1029100057F8049B6D1C28786C280FD006DC4C28D7
:1029200017D068280DD06A2814D104E0742810D07C
:102930007A280FD10DE044F400140AE044F4801426
:1029400001E044F440146978814202D104F5801416
:102950006D1C6D1C2A786E2A1FD00CDC632A31D0C6
:1029600004DC002A8BD0582A11D1A3E0642A68D055
:10297000692A0CD165E0732A2ED004DC6F2A73D04B
:10298000702A04D19BE0752A6FD0782A6ED0104649
:10299000DDE90F129047761C50E1C4F30250022883
:1029A00006D0032809D0042801CF09D0066045E1EC
:1029B00001CFF117C0E9006140E101CF06803DE1A0
:1029C00006703BE117F8040B8DF8000000208DF82D
:1029D0000100EB46012003E057F804BB4FF0FF3045
:1029E00061074FF0000102D40DE008F101018846B3
:1029F00049450FDA8045F8DB1BF808100029F4D1AF
:102A000008E008F1010188468142FADB1BF8081052
:102A10000029F6D1DDE90F23AAEB08008146214603
:102A200000F036F9304400EB080604E0DDE90F124F
:102A30001BF8010B9047B8F10108F7D22146484630
:102A4000F7E00A21C4F302534FF0000B0891022B68
:102A500004D001CFC117032B09D00AE0FF1D27F0D6
:102A60000707F7E8020108E032E01FE020E000B2CB
:102A7000C117042B01D140B2C117031E71F100032D
:102A800007DA4FF0000CD0EB0C006CEB01012D23AA
:102A900002E0230504D52B238DF82430012303E025
:102AA000E30701D02023F7E7984658E00A2110E019
:102AB00010210EE010204FF0000B08900CE01021C8
:102AC0004FF0000B44F004044FF00809089103E0B4
:102AD00008214FF0000B0891C4F30253022B04D0DD
:102AE00001CF0021032B06D006E0FF1D27F00707CA
:102AF000F7E8020103E080B2042B00D1C0B24FF02E
:102B0000000823072BD5702A07D0DDF820C08CF0F1
:102B1000100C5CEA0B0C05D00EE040238DF824303D
:102B2000012308E050EA010306D030238DF8243059
:102B30008DF8252002239846DDF820C08CF0080C83
:102B40005CEA0B0C0BD150EA010301D1630706D5F7
:102B500030238DF824304FF00108A9F10109582ADB
:102B600004D038A20B9208AA0A920BE03AA2F9E725
:102B70005B46089AFDF72AFE0B9B9B5C0A9A521E45
:102B80000A92137050EA0102F2D10A98ADEB0000EC
:102B900000F1200B600702D524F4803401E04FF0EF
:102BA0000109D94502DDA9EB0B0000E0002000EB94
:102BB0000B0141440890AAEB010AE00306D4DDE9C9
:102BC0000F232146504600F063F806444FF00009F9
:102BD00008E009A911F80900DDE90F12904709F191
:102BE0000109761CC145F4DBE0030CD5DDE90F23B8
:102BF0002146504600F04CF8064404E0DDE90F128F
:102C000030209047761C0899481E08900029F5DC72
:102C100008E00A980A990078491C0A91DDE90F1228
:102C20009047761CBBF10001ABF1010BF1DC2146B2
:102C30005046DDE90F2300F019F806446D1C1BE631
:102C40000928010030313233343536373839616282
:102C50006364656600000000303132333435363746
:102C60003839414243444546000000002DE9F04117
:102C7000044600251E461746880404D405E039465C
:102C80002020B0476D1C641EF9D52846BDE8F081B0
:102C90002DE9F041044600251E469046C80301D5A3
:102CA000302700E02027880404D505E04146384657
:102CB000B0476D1C641EF9D52846BDE8F0810000C0
:102CC0002DE9FE4F80460F460025684601F098F832
:102CD00000246FF00F0AE946012658F8240057F83F
:102CE0002410401A00D54042FDF7EAFC5146FDF79A
:102CF00053FB59F8241011F0FF4F0BD0FDF70EFBDA
:102D00004FF07E51FDF7D2FA094920F00040884289
:102D100005DC07E0074908440749884202D306FA60
:102D200004F00543641C032CD7DB2846BDE8FE8F66
:102D3000295C0F3E666666C19A99D9002DE9F04D6F
:102D40008D4F21F0004A86B005460C46BA452ADB75
:102D5000AAEB070028430AD08848824501DC1AD133
:102D6000CDB106B02846BDE8F04DFFF74DBD844A11
:102D7000844B2846FDF7C3FB07460E46824A834B29
:102D800028462146FDF7BBFB06B03A463346BDE870
:102D9000F04DFDF70DBB0120FFF75AFD06B0BDE871
:102DA000F04DFFF736BD7A48824542DABAF1795FD5
:102DB0000BDA2846FFF706FA042808BFFFF730FDB4
:102DC000284606B02146BDE8F08D2A460B4610463F
:102DD000FDF795FB834602466E480E460B460621DC
:102DE0007844FFF745FC5A463346FDF788FB80469A
:102DF00069488A465A46334604217844FFF738FC2E
:102E00005A463346FDF77BFB00223B46FDF7D0FADE
:102E100002460B4640465146FDF7E3FB2A46234651
:102E2000FDF76DFB06B02A462346BDE8F04DFDF7E1
:102E3000BFBA284624F0004100223D463B46FDF73C
:102E40005BFB4FF0FF32FDF7A7FD064602465348F5
:102E50000F460B4606217844FFF70AFC32463B46F4
:102E6000FDF74DFBCDE900014D4832463B460421BC
:102E70007844FFF7FDFB32463B46FDF740FB00225E
:102E80002B46FDF795FA834602913046394602F00B
:102E90000DFE804643480D46504517DCDDE9000134
:102EA0005A46029BFDF79DFB42462B46FDF727FB4A
:102EB00042462B46FDF77CFA0122FDF76DFD304AB4
:102EC000304BFDF716FB304A304B4CE04FF0000A18
:102ED00052460B464046FDF76BFACDE903105246C9
:102EE0002B4610461946FDF70AFB32463B46FDF7D6
:102EF00003FBDDE90332FDF774FB06460F46DDE90F
:102F000000015A46029BFDF76CFB834600910122AB
:102F100030463946FDF740FD194A1A4BFDF7ECFAE9
:102F200006460F46012240462946FDF735FD5A4622
:102F3000009BFDF7E4FA32463B46FDF7DAFA064617
:102F40000F46012250462946FDF726FD0E4DDFF8BB
:102F500058802A464346FDF7CFFA32463B46FDF7F6
:102F6000CBFA2A464346FDF7C7FA002CD8BF81F0BA
:102F7000004106B0BDE8F08D0000F03F0000F07F9A
:102F8000075C143326A6913C182D4454FB21F93FCD
:102F90000000E03FA43A0000BA3A00002E3A0000D8
:102FA000443A00003333EF3FFB21E93F2DE9F84F6E
:102FB00004460D4621F0004000917349814211DC26
:102FC0007249884201DC06D12CB120462946BDE871
:102FD000F84FFFF719BC6E48002DCCBF6D496E4904
:102FE000BDE8F88F6D49814211DD6D498142D8BF3E
:102FF0004FF0FF366DDD20462946FFF7E3F8042841
:1030000008BFFFF70DFC20462946BDE8F88F65494B
:10301000654F25F00045814233DD6449814219DD69
:10302000002632464FF0804320462946FDF7C0F97E
:1030300080468A46012220462946FDF7ADFC002243
:103040003B46FDF756FA42465346FDF7CAFA044698
:103050000D463EE001260022BA463B462046294660
:10306000FDF7A6F980460F46002253462046294622
:10307000FDF73FFA42463B46FDF7B3FA04460D46DC
:1030800027E04B4981421BDDDFF828A10226002200
:10309000534620462946FDF732FA00223B46FDF70B
:1030A00087F980460F460022534620462946FDF701
:1030B00020FA42463B46FDF794FA04460D4608E0E6
:1030C000032622462B4600203B49FDF78AFA044698
:1030D0000D4622462B4610461946FDF710FA8B4640
:1030E000824602460B46FDF70AFA07460246334877
:1030F00088460B4606217844FFF7BAFA52465B46EB
:10310000FDF7FDF982462E488B463A464346052197
:103110007844FFF7ADFA3A464346FDF7F0F9024628
:103120000B46002E504659460CDAFDF741F922466F
:103130002B46FDF7E4F901B022462B46BDE8F04FDF
:10314000FDF7DAB9FDF734F922462B46FDF7D7F93A
:103150001C4A7A4402EBC603D3E90023FDF7C9F900
:1031600022462B46FDF7C5F9174A7A4402EBC603FF
:10317000D3E90023FDF7C0F9009A002AB8BF81F017
:103180000041BDE8F88F0000000010440000F07F0F
:10319000182D4454FB21F93FFB21F9BF0000DC3F0F
:1031A0000000203E0000F33F0000F03F0000E63F3B
:1031B000008003400000F83F0000F0BF46380000E8
:1031C00004380000A23700006A3700002DE9F04DF6
:1031D0009446CCF1000423F000464CEA0404524F1C
:1031E00046EAD4749A46884621F00042BC4206D88A
:1031F000454240EA050442EAD474BC4204D9BDE821
:10320000F04D6246FFF703BBAAF14055A5F17F657B
:1032100055EA0C040BD0022404EAAA74434DDFF8EB
:1032200010E144EAD87452EA000B04D00CE0BDE887
:10323000F04DFFF7BBBE002C14BF012CBDE8F08D94
:10324000022C30D0032C32D056EA0C0B0AD0BE42EE
:1032500020D1BA4209D126F0804622F0804233467E
:10326000114617E000291ADB25E0DFF8C8B0FB445F
:10327000002C04BFDBE90001BDE8F08D012C02BF8A
:10328000DBE9000181F00041BDE8F08D022C0AD09D
:10329000032C0CD0BA4212D1B8F1000F0BDA23483C
:1032A0002549BDE8F08D28462449BDE8F08D284623
:1032B0007146BDE8F08D1D482149BDE8F08D921B97
:1032C00012153C2AC4BF19481D490EDCBAF1000F83
:1032D000BEBF12F13C0F0020014606DB6246FDF73F
:1032E00080F921F00041FFF761FE002C08BFBDE826
:1032F000F08D012C04BF81F00041BDE8F08D114A32
:10330000114B022C07D0FDF7F4F82A46BDE8F04D2A
:103310000A4BFDF7EEB8FDF7ECF82A46BDE8F04D94
:10332000064BFDF7E9B800000000F07F182D44546B
:10333000FB2109C02E370000FB21F9BFFB2109400A
:10334000FB21F93F075C143326A6A13C00B5244BB2
:1033500021F0004287B09A42DCBF0022134629DDEB
:10336000204B9A4208D140B94FF00100FFF770FAA4
:10337000FFF74FFA07B000BD03DBFFF745FA07B0D0
:1033800000BD02AAFEF732FF10F0030104BF0DF1E9
:10339000080C9CE80F000DD0012001290ED0022955
:1033A00014D00DF1080C00909CE80F00FFF7B6F95F
:1033B00007B000BDFFF7DEF807B000BD0DF1080C47
:1033C00000909CE80F00FFF7A9F905E00DF1080C4B
:1033D0009CE80F00FFF7CEF807B081F0004100BD78
:1033E000FB21E93F0000F07F10B56FF00400FEF70D
:1033F000EDFA094809490068B0FBF1F00849C0B28C
:1034000000EB40020870C2EBC0104FF6FF7202EAF8
:10341000C000488010BD00001000002000127A009B
:10342000240000200B49498848434FF0E0214861BF
:1034300000238B61086940F0010008610869C20738
:1034400001D0C003FAD5086920F0010008618B6142
:1034500070470000240000200B49097848434FF0D2
:10346000E021486100238B61086940F00100086198
:103470000869C20701D0C003FAD5086920F001002D
:1034800008618B61704700002400002008B560B11E
:1034900020208DF8000028208DF8010030208DF8C4
:1034A000020038208DF8030004E0A32204216846BE
:1034B000FCF78BFE6A46042140F69E2001F066FF71
:1034C00001F02AFC08BD00003EB5044602208DF83C
:1034D0000000CA208DF80100E3208DF802000920C9
:1034E0008DF803006A460421682001F04FFFA320F5
:1034F0008DF80000610609D5C0218DF80110C821A2
:103500008DF80210C2218DF8031005E08DF801003E
:103510008DF802008DF8030014F4C07F09D0C42197
:103520008DF80410CC218DF80510C6218DF80610F9
:1035300005E08DF804008DF805008DF806008DF883
:1035400008008DF807008DF809006A460A2140F648
:10355000A72001F01BFFA0074FF0D80503D02020C3
:103560008DF8000001E08DF800506A46012140F618
:10357000B62001F00BFFA00601D5012000E00020DD
:1035800000F090F814F4C07F1ED0E0050AD5B220F8
:103590008DF800008B208DF80100B6208DF8020018
:1035A0009B2009E0B0208DF8000080208DF80100FC
:1035B000B4208DF8020090208DF803006A460421A3
:1035C00040F6A22001F0E2FEE0074FF40B6323D0A7
:1035D000F8208DF800006A460121184601F0D6FE59
:1035E000FA21072000F03AFB072000F005FB01203C
:1035F00000F022FB642000F0C5FB4FF4FA7000F0ED
:10360000D1FBC821254800F0BFFA282000F0D4FAE9
:103610000A2000F0E1FA06E08DF800506A46012128
:10362000184601F0B3FEA00703D5D9208DF800009D
:1036300001E08DF800506A46012140F23D7001F032
:10364000A5FE600701D5012000E0002000F046F84B
:10365000E00601D5012000E00020FFF717FF104D24
:1036600044F00800688101F057FB0020A873600651
:1036700001D50620A87314F4C07F02D0A87B801D5A
:10368000A87314F0140F02D0A87B1030A873A00701
:1036900002D0A87B001DA87300203EBD09E3CA022A
:1036A000F40200200EB54FF4976308B105A000E0C6
:1036B00007A007C88DE807006A460921184601F0EF
:1036C00065FE0EBDB8AAB38DB4980D355D0000003F
:1036D000B8AAAAAAB088C3C5C700000008B560B1DF
:1036E000C0208DF80000C2208DF80100C4208DF8A4
:1036F0000200C6208DF8030004E08B2204216846F6
:10370000FCF763FD6A46042140F6982001F03EFE76
:1037100001F002FB08BD0000C8234FF4806202499B
:1037200040F6F63001F0D8B9785C00082DE9FF4F7B
:1037300089B01646DDE916520024DFF834810F46C1
:1037400081462C80A24698F80E00694601F072FA74
:103750004FF0FF3B18B158460DB0BDE8F08FB8F8F8
:103760000A0010F0140F3CD0009909BA21F0FF0CA8
:103770009DF803104CEA010CC6F800C0019909BA83
:1037800021F0FF039DF807100B43736002999DF829
:103790000B2009BA21F0FF011143B160039A9DF893
:1037A0000F4012BA22F0FF022243F2604FEA2C4689
:1037B00009141B1412147643494303FB036302FBF1
:1037C000021119441024A1F17061B1F1007F04D9F4
:1037D00001F0A2FAA5F800A0BDE7298841F48071A4
:1037E000298041066A460ED51119A41D0B885BBAC3
:1037F0003B804B885BBA7B80898849BAB98029882D
:1038000041F00801298010F4C07F11D01119A41DC6
:103810000B885BBAA9F800304B885BBAA9F8023074
:10382000898849BAA9F80410298841F070012980D3
:10383000800718D01444E07800F0C00500F03F0184
:103840006078C00707D0C80801F00701D8F8002049
:10385000491C02B190476078000704D5D8F80410DD
:1038600009B1A80988470C9800F06EFE002073E7A4
:10387000F40200202DE9FF41044603A800F0E2FF16
:10388000BDF80C00420CC3032F48018901F003006E
:103890004D0754F8200000D54042C1F3C1058E0603
:1038A00054F8255000D56D42C1F38116C90554F86E
:1038B000264000D56442A0FB0367C11701FB0371DA
:1038C00000FB0210810041EA9670A5FB0367E9172F
:1038D00001FB037105FB02118D0045EA9671A4FB03
:1038E0000367E51705FB037304FB0232930043EA09
:1038F0009672030E8DF80030030C8DF80130030A28
:103900008DF802308DF80300080E8DF80400080CC5
:103910008DF80500080A8DF80600100E8DF80800D5
:10392000100C8DF80900100A8DF80A008DF80710A8
:103930008DF80B206A460C214FF4257001F026FD0E
:1039400004B0BDE8F0810000F402002030B5044668
:1039500013A185B007C98DE807004FF0FF35C82CCB
:1039600016D8C820B0FBF4F1491E080A8DF80C00E7
:103970008DF80D1003AA022140F2162001F006FD79
:1039800030B96A460C2140F6C12001F0FFFC10B1AD
:10399000284605B030BD054884810020F9E70000C5
:1039A000FEF2ABC4AAF1DFDFBBAFDFDFF402002021
:1039B000F8B53049098901F0030250F822404A075E
:1039C00000D56442C1F3C10250F822308A0600D506
:1039D0005B42C1F3811250F82220C80500D5524243
:1039E000254984FB0140850045EA947083FB01432F
:1039F00082FB0121950F45EA8105010E8DF800102B
:103A0000010C8DF80110010A8DF80210A40F8DF839
:103A1000030044EA83046A4604214FF4747001F001
:103A2000B5FC4FF0FF3688B9200E8DF80000200C51
:103A30008DF80100200A8DF802008DF803406A46D7
:103A400004214FF4757001F0A1FC08B13046F8BDB7
:103A5000280E8DF80000280C8DF80100280A8DF83A
:103A600002008DF803506A4604214FF4767001F08D
:103A70008DFCF8BDF402002009E3CA022DE9FF41E4
:103A800004463CA002AB006802903BA00068039093
:103A90003AA006683AA0056804F00300195C8DF8A6
:103AA0000010C4F3C1015A5C8DF80120C4F38112E7
:103AB0009B5C8DF8023003AB185C8DF80400585CF9
:103AC0008DF80500985C8DF806006A46032140F2E7
:103AD000264001F05BFC4FF0FF37E0BB01AA032159
:103AE00040F22A4001F052FCA8BBCDE90065600716
:103AF0000BD59DF8000040F001008DF800009DF806
:103B0000040040F001008DF80400A0060BD59DF8DC
:103B1000010040F001008DF801009DF8050040F023
:103B200001008DF80500E0050BD59DF8020040F07E
:103B300001008DF802009DF8060040F001008DF8AC
:103B400006006A4603214FF4886001F01FFC10B99B
:103B500001AA032100E004E040F2314001F016FC2C
:103B600018B1384604B0BDE8F08106480481002051
:103B7000F8E700004CCD6C000CC92C0036567600DE
:103B800026466600F40200204FF47A7290FBF2F0B1
:103B900008B54843010E8DF80010010C8DF8011096
:103BA000010A8DF802108DF803006A4604214FF4D3
:103BB000AE7001F0EBFB08BD0521B0FBF1F008B5DC
:103BC000010A8DF800108DF801006A4602214FF4B9
:103BD000AD7001F0DBFB08BD0521B0FBF1F008B5CD
:103BE000010A8DF800108DF801006A4602214FF499
:103BF000AC7001F0CBFB08BD08B500218DF80010BA
:103C0000C10702D030218DF80010810705D59DF83D
:103C1000001041F00C018DF80010400705D59DF80B
:103C2000000040F003008DF800006A4601214FF4C7
:103C3000A47001F0ABFB08BD08B560B1042800D941
:103C40000420401E8DF800006A46012140F24F100A
:103C500001F09CFB08BD0120F3E700002DE9FC41C9
:103C6000054640074FF0FF367CD0B1F5C86F79D8D4
:103C70000846FCF72EFD3E49FCF750FB074601A81D
:103C800000F0C2FD9DF80400022806D004280DD0E3
:103C900008282ED0102865D134E00E213846FCF7D4
:103CA0007BFBFCF745FD84B2324907E00D21384625
:103CB000FCF772FBFCF73CFD2F4984B23846FCF759
:103CC000FBFAFCF735FD210A8DF8001080B28DF863
:103CD0000140010A8DF802108DF80300E8076C46D8
:103CE00020D0224602214FF4EA7001F04FFBC8BBFE
:103CF00011E00C213846FCF74FFBFCF719FD84B2AC
:103D00001E49DBE70B213846FCF746FBFCF710FDAC
:103D100084B21B49D2E7A21C02214FF4927001F039
:103D200035FBF8B9A8070DD56A4602214FF4EC70AF
:103D300001F02CFBB0B9A21C02214FF4947001F0E9
:103D400025FB78B9680710D56A4602214FF4EE705A
:103D500001F01CFB30B9A21C02214FF4967001F057
:103D600015FB10B13046BDE8FC810020FBE70000E8
:103D700000004843000040460000C04500004045A8
:103D80000000C0440521B0FBF1F008B5010A8DF830
:103D900000108DF801006A4602214FF4EF7001F027
:103DA000F5FA08BD0521B0FBF1F008B5010A8DF860
:103DB00000108DF801006A4602214FF4ED7001F009
:103DC000E5FA08BD054810B50068FCF798FC044901
:103DD000086004484088486010BD00000C000020C6
:103DE0001C070020E802002004490A885206FCD57E
:103DF000024AC1B2121D1180704700000044004009
:103E00002DE9FC47054625486B46042240680D21F4
:103E10000078FDF77DFB10B10720BDE8FC879DF819
:103E200000001C2101EAD0029DF80300DFF8709029
:103E3000C0F301131A438DF804209DF80120C0F34C
:103E4000810301EAD2021A438DF805209DF8022071
:103E500000F0030001EAD20101430024114F8DF864
:103E60000610A04601AE305D10B145F8249009E07F
:103E700045F824800CE055F824003946FCF71CFA7C
:103E800045F82400305D401E10F0FF003055F2D19F
:103E9000641CE4B2032CE6D30020BEE7E800002057
:103EA0007B14AE3E1D5A843F2DE9FE4F054601208E
:103EB000C14E8DF800004FF000088DF80180306889
:103EC0000C461746817C70686B4602220078FDF72D
:103ED000ABFB4FF0FF3A00287AD1C820FFF7A2FAD7
:103EE0008DF8008030686B460122C17B70680078D5
:103EF000FDF79AFB0028EFD130686B46012241792B
:103F000070680078FDF790FB0028E5D130686B46BB
:103F10000122817C70680078FDF786FB0028DBD1E8
:103F200030686B460122C17D70680078FDF77CFB2C
:103F30000028D1D130686B46012201797068007881
:103F4000FDF772FB0028C7D14FF00C098DF80090E7
:103F500030686B460122017970680078FDF764FBD8
:103F6000002835D10F20FFF75DFAB06A6B460122B9
:103F7000407A8DF800003068817870680078FDF72D
:103F800053FB002824D1B06A6B460122007A8DF8D9
:103F900000003068417870680078FDF745FB002824
:103FA00073D1B06A807A0FB140F0E0008DF8000064
:103FB00030686B460122817970680078FDF734FB28
:103FC000002862D12FB1B06AC07A40F0E00001E071
:103FD0004AE018208DF8000030686B460122C17954
:103FE00070680078FDF720FBF0BB17B1C820FFF721
:103FF00019FA40208DF8000030686B4601220179E3
:1040000070680078FDF710FB70BB78208DF8000019
:1040100030686B460122417970680078FDF704FB37
:1040200010BB3220FFF7FEF98DF80080306847465C
:104030006B464179706801220078FDF7F5FA98B96E
:1040400031687068B046897A00786B460222FDF7C5
:104050005FFA48B9BDF80000AF6040BAB0FBF9F0B4
:104060006F60C6B22F6000E00FE0A7606760276056
:10407000002739E0D8F80010D8F804006B46C97A58
:1040800000780C22FDF744FA10B15046BDE8FE8FCF
:10409000BDF80000236840BA02B2BDF802001A441D
:1040A00040BA01B2BDF804002260626840BA11440F
:1040B0006160A16800B20844A060BDF806002B68EA
:1040C00040BA02B2BDF808001A4440BA01B2BDF8C5
:1040D0000A002A606A6840BA11446960A96800B29F
:1040E00008447F1CFFB2A860B742C3D3286883226C
:1040F000C117090441EA104100040023FCF734F819
:1041000032460023FCF730F8286068688322C11724
:10411000090441EA104100040023FCF725F8324667
:104120000023FCF721F86860A8688322C1170904FE
:1041300041EA104100040023FCF716F83246002340
:10414000FCF712F8A86020684FF40065C117090455
:1041500041EA104100042A460023FCF705F83246E4
:104160000023FCF701F8206060682A46C1170904A3
:1041700041EA104100040023FBF7F6FF324600231A
:10418000FBF7F2FF6060A0682A46C117090441EA04
:10419000104100040023FBF7E7FF32460023FBF742
:1041A000E3FFA060002802DDA0F5803001E000F50B
:1041B0008030A060002069E7E80000202DE9F84F7A
:1041C00082462F488946002540686B4603220078C6
:1041D0000D21FDF79DF910B10720BDE8F88F9DF87E
:1041E0000000002400F01F008DF800009DF8010081
:1041F0006F4600F01F008DF801009DF802004FF09F
:10420000010800F01F008DF802005AF8241059F838
:104210002400081A00D54042FCF752FA6FF00F0153
:10422000FCF7BAF80646385DE0B1164ADFF858B038
:1042300004E059461046FCF73FF80246385D401E40
:1042400010F0FF003855F4D111463046FCF766F8FF
:104250004FF07E51FCF72AF80C4920F000408842CC
:1042600005DC07E00A483044B0F1D97F02D908FAEA
:1042700004F00543641C032CC7DB2846ADE70000AF
:10428000E80000200000C84154E3853F295C0F3E50
:104290000000E0BE30B50446012187B04804FDF7B8
:1042A000C9FA01210420FDF7D1FA0421ADF810105C
:1042B00003218DF812101820224D8DF8130004A947
:1042C0002846FCF7FBFC0820ADF8100048218DF8CB
:1042D000131004A92846FCF7F1FC0020ADF80400F7
:1042E0000094ADF80600ADF80800ADF80C000C2005
:1042F000154CADF80A0069462046FDF7F7FE40F27E
:10430000255529462046FDF7A3FE012229462046D1
:10431000FDF7D4FE4FF4A060FDF7E4F926218DF8F7
:10432000141002208DF8160001218DF815108DF85B
:10433000171005A8FDF7A4F901212046FDF78EFE10
:1043400007B030BD000801400044004000B50246FF
:1043500000F00DF80346D01C00F009F843EAC00352
:10436000901D00F004F843EA801080B200BD90F97F
:104370000010002902DD4FF00000704702DA4FF014
:104380000400704790F90110002902DD4FF0010090
:10439000704702DA4FF00500704790F902000028DC
:1043A00002DD4FF00200704702DA4FF0060070475E
:1043B0004FF0070070470000FFF716F800F0C5F84F
:1043C00001F00EF84FF41650FFF764FF4FF4E130A0
:1043D00001F092FBFDF744F8FDF7ECF94FF001090D
:1043E000DFF8388101E088F8009000F0BBF9002880
:1043F000F9D1834688F800B0C24601E08AF80190FE
:1044000001F06CF90028F9D08AF801B0DFF810B19A
:10441000DFF81081D8F80000B04204D006464248C8
:1044200007C801F029F9D8F80000C11B142957D397
:104430000746584601F036F83C49C87810B93C4B5D
:1044400083F800900A78012A03D028B1FCF71AFEFD
:104450001BE0091D0EC915E04878F0B1DAF80C0030
:1044600010F1FF4F01D2584509DDFCF775F9314ACB
:10447000314BFCF744F8FCF782F9034600E00023D7
:1044800000221146002001F0CDF8244A0C32111F01
:10449000081F00F099F808B322E088780028EED0D1
:1044A00026484088B0F59B7F05D9A0F5967000EBB3
:1044B0008000400007E0B0F5967F09D2A0F5967025
:1044C00000EB80008000FCF7FBF802461C4901E08D
:1044D00000221146002001F05FF8D6E78AF802902A
:1044E000D8F80000411BB1F5FA7F07D3154A0546FD
:1044F000D2F8B41181B10021C2F8B411011BC8294E
:1045000088D3044601F02AF908B1FDF7F5F9FFF761
:1045100059FC01F01BFA7DE70121EDE700000020C6
:104520000000A0405C010020680100203C07002042
:10453000E40000207B14AE47E17A94BFE80200203B
:104540000000B44200002242704710B500F052FF54
:10455000FDF772FA0021012000F0DAFF00210220AD
:1045600000F0D6FF0021BDE81040032000F0D0BFCE
:104570002DE9F041134D20F00104002695F82400A8
:1045800010B10020BDE8F081A87A4FF0FF3838B1B3
:1045900020402F7C2874A04200D0464624B901E078
:1045A0004046EFE7287D40B1012001F005FA3CB11B
:1045B00000F0B2FB20B12F74F2E7002001F0FCF90B
:1045C0003046DFE7E80000202DE9F74F8EB00CA958
:1045D00006A8CDE900010BAB02AA09A907A8FFF7BD
:1045E000A5F818B1012011B0BDE8F08FBDF8180092
:1045F000C0057DD50298FCF763F86FF01D042146D5
:10460000FBF7CAFE81460398FCF75AF82146FBF7F0
:10461000C3FE80460498FCF753F82146FBF7BCFE26
:1046200006460598FCF74CF82146FBF7B5FE824696
:1046300001214846FBF7B0FE07463146FBF73CFE3A
:1046400004464FF040414046FBF736FE05465146D2
:10465000FBF732FE2146FBF7D7FDFCF77DF8FEF7AE
:104660006DFB4FF0663B5A463D4BFBF748FFFCF7AE
:1046700086F80E99086001213046FBF78DFE314621
:104680000090FBF719FE044628464146FBF714FE4E
:104690002146FBF70BFE4FF07E51FBF7B5FDFCF713
:1046A0005BF804460D4638464146FBF705FE0746D3
:1046B00051460098FBF700FE3946FBF7A5FDFCF7D5
:1046C0004BF822462B46FEF781FD5A46244BFBF75A
:1046D00016FFFCF754F80F99086051460846FBF79F
:1046E000EBFD074631460846FBF7E6FD054600E0D0
:1046F00034E041460846FBF7DFFD044649460846DC
:10470000FBF7DAFD2146FBF77FFD2946FBF7CEFDDF
:104710003946FBF7CBFDFCF71FF804460D46514622
:104720004846FBF7C9FD074631464046FBF7C4FD46
:104730003946FBF769FD0121FBF72EFEFCF70CF86B
:1047400022462B46FEF742FD5A46054BFBF7D7FEA5
:10475000FCF715F810990860002044E7022042E7B2
:1047600066A64C4010B5FCF76FFD00F0F1F808B1FB
:104770000A2010BD782000F0ADFD10F0FF0F01D031
:10478000012010BD7820FFF7F3FE10F0FF0F01D0DD
:10479000022010BD642000F061FD10F0FF0F01D079
:1047A000032010BDFEF7B8FF10F0FF0F01D004206A
:1047B00010BD1448FFF7CAFDFFF760F910F0FF0FB6
:1047C00001D0052010BD40F27310FEF77DFE10F001
:1047D000FF0F01D0062010BD6420FFF7B7F810F0DE
:1047E000FF0F01D0072010BD01F056F808B10820D6
:1047F00010BD012000F058FC10F0FF00F8D0092097
:1048000010BD0000140100200D4A517A41B1012968
:1048100008D002290FD003290FD04FF0FF30704786
:10482000022100E004210170D17C11B1017849001E
:104830000170002070470821F5E71021F3E7000020
:10484000E80000200F4A517A41B1012909D002291C
:1048500011D0032912D04FF0FF3070474FF4804140
:1048600001E041F69C710180D17C11B101884908B9
:104870000180002070474FF48051F4E74FF400614D
:10488000F1E70000E80000200B49097A39B101295D
:1048900007D002290AD003290BD0002103E0FA2116
:1048A00001E04FF4FA710180002070474FF47A71F3
:1048B000F9E74FF4FA61F6E7E80000200A49097ABF
:1048C00041B1012908D002290AD003290AD04FF0AA
:1048D000FF307047054900E005490160002070473E
:1048E0000449FAE70449F8E7E80000200000034320
:1048F0000000834233330342333383410C49C97A86
:10490000072913D2DFE801F01204060A0C0E10008A
:10491000BC2100E062210180002070472A21FAE7D3
:104920001421F8E70A21F6E70521F4E70021F2E770
:10493000E8000020054991F8242012B14FF0FF3023
:104940007047C9890180002070470000E8000020FE
:104950002DE9FC414C4C80208DF8000020686B460E
:104960000122817C60680078FCF75EFE4FF0FF3723
:10497000002832D16420FEF755FD00258DF8005047
:1049800020686B460122817C60680078FCF74CFE51
:10499000002870D120686B460622817D606800780F
:1049A000FCF7B6FD002866D19DF805009DF80310C0
:1049B000C007400F01F0010140EA41019DF80100EC
:1049C0004FF0010600F00100014309D0012905D094
:1049D000022915D02DA0FDF7E5FB4CE0E67410E0B0
:1049E00020686B460122C17860680078FCF790FD72
:1049F00040BB9DF8000010F00F0020D0042822D00A
:104A0000E574FF2004F80A0F4FF6FF7104F8020C5A
:104A100004F8010C6070A180A0712072A670267647
:104A20006576E572A572E56025616561A576E57636
:104A3000A5834FF4FA6000F073FB18B907E01D4836
:104A4000FDF7B0FB17E01CA0FDF7ACFBC6E70220AA
:104A500000F088FA78B92A2000F0CAFB58B9322051
:104A600000F0FCFB38B90020FFF782FD18B90020E8
:104A700000F0ACFA10B13846BDE8FC81002000F02F
:104A800029FC0020F8E70000E8000020556E73754F
:104A900070706F7274656420736F6674776172658D
:104AA0002070726F64756374207265762025642EA1
:104AB0000A000000986A000848616C662073656E01
:104AC0007369746976697479207061727420666F95
:104AD000756E642E0A0000002DE9FF4FDFF898A0E4
:104AE000054685B09AF82500914688464FF0FF3B71
:104AF000C0BBB8F1000F35D000241FE0281B1028E0
:104B000000DD102086B208EB04073A463146204605
:104B100000F03CFC30BB6A463146204600F0D2F83B
:104B200000BB384632466946FBF761FB20B16FF0A7
:104B3000010009B0BDE8F08FA01984B2AC42DDD30A
:104B40004FEA19208DF810008DF81190DAF8000066
:104B5000544604AB817EDAF8040002220078FCF7A8
:104B600063FD08B15846E4E7012084F82500089861
:104B7000E0840020DDE70000E80000202DE9F84394
:104B800004464FF0FF39282844D80727284D00262F
:104B90007CB1012000F0FAFA20208DF800004FF0DF
:104BA0000108012C17D0052C18D88DF8018005209C
:104BB0001FE0002000F0EAFA8DF800608DF8017027
:104BC00028686B460222817C68680078FCF72CFD1F
:104BD00000BB2E7529E08DF80160E8E7142C04D89D
:104BE00002208DF801000A2003E003208DF8010067
:104BF000142000F0FDFA9DF801006B4607EB8010D1
:104C00008DF8010028680222817C68680078FCF732
:104C10000BFD10B14846BDE8F8830820A8722E733A
:104C200085F814800020FFF7A3FC0020F3E70000C4
:104C3000E80000202DE9F843214E0546174696F876
:104C4000240089464FF0FF3890B3B07A80B33068C3
:104C50006B460222817A70680078FCF759FC38BBF9
:104C6000BDF8000044BAAC4202D2002038701FE008
:104C700070684188B4EB510F11D9316800786B46E8
:104C8000497C0122FCF744FC90B99DF80000C00665
:104C900005D500F041F86FF00100BDE8F8833068F9
:104CA000EAB24B46C17A70680078FCF731FC08B173
:104CB0004046F2E7B4FBF5F0401E38700020ECE708
:104CC000E8000020F8B517000D464FF0FF341FD064
:104CD000104EB17AE1B1010A8DF80010C0B28DF822
:104CE0000100411970684289914211D831680078F9
:104CF0006B46097E0222FCF797FC48B93068EAB29D
:104D00003B46417D70680078FCF702FC002800D02B
:104D10002046F8BDE8000020F8B5554D4FF0FF36AD
:104D2000A87A00287ED000248DF8004028686B46C1
:104D30000122C17B68680078FCF776FC002871D1FD
:104D400028686B460122417968680078FCF76CFCA2
:104D5000002867D128686B460122017968680078CD
:104D6000FCF762FC00285DD195F82400E0B30C202C
:104D70008DF8000028686B46012201796868007888
:104D8000FCF752FC002871D13220FEF74BFBC0200B
:104D90008DF80000A87AC00702D0E0208DF800004E
:104DA00028686B460122017968680078FCF73CFCB2
:104DB00000285BD1687C18B102208DF8000001E06A
:104DC0008DF8004028686B460122C17B6868007836
:104DD000FCF72AFC30BB8DF8004028686B460122A6
:104DE0004179686800783DE0FFE704208DF8000015
:104DF00028686B460122017968680078FCF714FC8A
:104E000080B9A87C88B9A87AC0070ED060208DF838
:104E1000000028686B460122017968680078FCF779
:104E200003FC00E022E008BB01E04020EFE7322075
:104E3000FEF7F8FA687C18B101208DF8000001E057
:104E40008DF8004028686B460122C17B68680078B5
:104E5000FCF7EAFB50B92868054B012241796868E4
:104E600010330078FCF7E0FB002800D03046F8BD96
:104E7000E80000202DE9F047394E82468AB096F8C6
:104E800024000F4620B1002000F00EF9012500E0BB
:104E9000002507A8FFF7F8FC06A8FFF7B5FC09A84E
:104EA000FFF72CFD08A8FFF745FD96F80A9096F845
:104EB00010800024002239465046FEF7F5FF10B15D
:104EC000641C022CF6DB022C1AD00024012203A958
:104ED0006846FEF7E9FF10B1641C022CF6DB022CD9
:104EE0000ED003A93846FDF7EBFEC7B2694650461F
:104EF000FFF764F910F0FF0F4FF0000402D002E05A
:104F0000002403E001240FB944F00204FF203072B2
:104F10007072F0724FF6FF71F181B072307401203F
:104F20003073BDF81C0000F0FBF89DF8180000F08D
:104F300019F8BDF8240000F05BF9BDF8200000F07E
:104F40008DF9484600F0C6F94046FFF711FB15B150
:104F5000012000F0A9F80AB02046BDE8F087000063
:104F6000E800002038B5184C4FF0FF35A17A19B38E
:104F7000022806D0042806D008280ED010281BD1FD
:104F80000DE0002000E008208DF80000607A9DF818
:104F90000010B0EBD10F04D005E01020F4E718208A
:104FA000F2E7002038BD20686B460122C1796068B5
:104FB0000078FCF739FB08B1284638BD9DF80000A1
:104FC000C0086072EDE70000E8000020F8B5354D3C
:104FD0000446A87CA04201D10020F8BD31484FF022
:104FE000FF366B46D0E900104FF0010209790078D6
:104FF00034B3FCF78DFA70BB9DF800006B4620F0CF
:1050000020008DF800002868012201796868007886
:10501000FCF70AFBF8B90320FEF704FA02208DF82A
:10502000000095F8220078B382202BE028686B46B8
:105030000122017D68680078FCF7F6FA58B92EE085
:10504000FCF766FA38B9A87AC0079DF8000003D0CB
:1050500040F0200002E00CE020F020008DF800007D
:1050600028686B460122017968680078FCF7DCFA51
:1050700008B13046F8BD0320FEF7D4F995F82200B8
:1050800000B180208DF8000095F823000028CDD0D5
:105090009DF8000040F030008DF80000C6E7AC74C9
:1050A0009AE70000E800002038B51C4C94F8241062
:1050B00081421DD0002500B394F82500D0B1002016
:1050C00000F07AFC0020FFF781FFE08C00F0C6F8CA
:1050D0008DF8005060686B46012200782321FCF7B0
:1050E000A3FA012084F8240000F066FCFFF714FE08
:1050F000002038BD4FF0FF3038BD002000F05CFCD0
:10510000207C8DF8000060686B4601220078232126
:10511000FCF78AFA84F82450E8E70000E800002051
:1051200038B5194C4FF0FF35A17A31B3FA2809D0C0
:10513000B0F5FA7F08D0B0F57A7F0FD0B0F5FA6FEE
:105140001BD10DE0002000E008208DF80000207A3F
:105150009DF80010B0EBD10F04D005E01020F4E76B
:105160001820F2E7002038BD20686B4601228179C3
:1051700060680078FCF758FA08B1284638BD9DF8F9
:105180000000C0082072EDE7E800002038B5174D98
:10519000044695F82300A04201D1002038BD0CB18F
:1051A000302000E000208DF80000A87C28B19DF898
:1051B000000040F002008DF8000095F8220028B1B0
:1051C0009DF8000040F080008DF8000028686B46D4
:1051D0000122017D68680078FCF726FA10B14FF0D3
:1051E000FF3038BD85F82340D7E70000E8000020F5
:1051F00038B5194C4FF0FF35A17A31B3BC2801D333
:10520000012010E0622801D302200CE02A2801D3FB
:10521000032008E0142801D3042004E00A2801D365
:10522000052000E006208DF80000E07A9DF80010CF
:10523000884201D1002038BD20686B460122817868
:1052400060680078FCF7F0F908B1284638BD9DF891
:105250000000E072EEE70000E8000020F8B51C4D09
:1052600004464FF0FF37A87A28B395F8240010BB06
:10527000287D48B12CB1282C03D8E0B2FFF77EFC82
:1052800024E00020FFF77AFC4FF47A76042C01D258
:10529000042402E0B44200D93446B6FBF4F0401EC8
:1052A0008DF8000028686B46012241786868007814
:1052B000FCF7BAF908B13846F8BD9DF80000401C6B
:1052C000B6FBF0F0E8814008FFF792FF0020F8BD40
:1052D000E8000020F8B5044610F0700F4FF000060B
:1052E00001D0012004E014B18DF8006002E04020FC
:1052F0008DF80000244D6B4601222868817C686887
:105300000078FCF791F94FF0FF3760BB9DF8000083
:1053100020F0400028738DF80060600602D404205D
:105320008DF80000A00605D49DF8000040F00200B2
:105330008DF80000E00605D49DF8000040F0010063
:105340008DF80000200705D49DF8000040F03800DB
:105350008DF8000028686B460122C17C68680078DF
:10536000FCF762F910B1AE723846F8BD24B1082CD2
:1053700002D00020FFF70AFFAC722E753220FEF734
:1053800051F80020F8BD0000E8000020F8B5170033
:105390000D464FF0FF341FD0104EB17AE1B1010A33
:1053A0008DF80010C0B28DF8010041197068428973
:1053B000914211D8316800786B46097E0222FCF7D1
:1053C00033F948B93068EAB23B46417D70680078ED
:1053D000FCF72AF9002800D02046F8BDE80000209C
:1053E00010B5FBF7BDFBFBF7F5FBBDE81040FBF785
:1053F0002BBC000038B501210820FCF727FA012159
:105400001020FCF723FA4FF46044ADF80040102060
:105410008DF8030003200C4D8DF8020069462846E4
:10542000FBF74CFC21462846FBF796FC6C14074D15
:10543000ADF8004069462846FBF740FC2146284667
:10544000FBF78CFC38BD0000000C0140001001404F
:105450002DE9F0414FF080473846FCF7B6FB0E4C83
:105460000E4D20802846FCF7B0FB0D4E6080304684
:10547000FCF7ABFBA0803888A4F10A01C0F3001050
:1054800008702888C0F3001048703088C0F30010FE
:105490008870BDE8F0810000280100200004004071
:1054A000000800402DE9F05F0546FFF7D1FFDFF867
:1054B00054A00024AAF10608DFF84C902846FBF718
:1054C0004BF9DFF848B00E4605463AF8147038F844
:1054D0001400381AFBF7F4F8FBF73EF900225B469C
:1054E000FBF70DF82A463346FBF77BF8FBF747F945
:1054F00049F8240028F81470641CE4B2032CE4D3A7
:10550000BDE8F09F280100200403002000408F40E8
:1055100049420AB230B41146B2F57A7F02DB40F25A
:10552000E73103E011F57A7F00DC1849002A02DA3E
:105530004FF0010207E002D14FF0010206E04FF008
:105540000002A1F2E731C1F1000109B2104B114C88
:1055500001280AD002280FD0032814D1C3F8BC2197
:10556000204630BC89B2FCF71FBCC3F8B4212046EA
:1055700030BC89B2FCF714BCC3F8B821204630BC5B
:1055800089B2FCF70FBC30BC7047000019FCFFFF6C
:1055900000802142002C01402DE9FF4714460A46B5
:1055A00080461D491046FAF7B9FE1C49FAF784FEF9
:1055B000FBF7D2F88A460546FDF7C8FE06460F46B9
:1055C0002046FBF7C9F88946044632463B46FAF7BF
:1055D00096FFFBF7D4F806462846514600F016FA27
:1055E00022464B46FAF78BFFFBF7C9F80246B8F1A3
:1055F000000F01D14FF000080023314601A8CDF87B
:105600000080FCF72DFC01AC054894E80E0080E812
:105610000E00BDE8FF87000000003443DA0F494068
:10562000680100202DE9FF411546884600B9002495
:105630000E491846FAF740FE0D4F064639462846F1
:10564000FAF73AFE054639464046FAF735FE014676
:1056500033462A4601A80094FCF702FC01AE054837
:1056600096E80E0080E80E00BDE8FF810000C84308
:1056700000409C456801002070B5164C0E4615464A
:10568000014615482268FCF737F8134831463C308C
:105690006268FCF731F8104829467830A268FCF7B8
:1056A0002BF80D4C606BFBF72AF801B20120FFF7D5
:1056B0002FFF206FFBF723F801B20220FFF728FF2E
:1056C000D4F8AC00FBF71BF8BDE8704001B2032032
:1056D000FFF71EBF040300202802002070B5FBF76F
:1056E000B7FC00F023F8002813D0002000F014F8D5
:1056F000084D002405EB4400417815F81400FBF731
:1057000089FC641CE4B2332CF4D3002000F004F8CC
:10571000012070BD845B000828B1012805D101215A
:10572000EF20FBF777BC0021FAE7704710B5FBF7D5
:1057300067FC0520FDF776FEFBF762FC0520FDF710
:1057400071FE0020FFF7E8FF0020FBF709FC20288E
:1057500001D0002010BD012010BD0000F0B54B4E5F
:1057600000253046757081883269484202EB40025C
:105770004FF48064464B706901E0084470618242D6
:10578000FBDC78E0CA1701EB92526FF309028A1A28
:1057900092B2C280571C07819F5CA52F66D112323E
:1057A000C2F309029A5C5A2A60D105700022C788A8
:1057B0007F1CBFB2C780A74202D3A7F58067C7800E
:1057C000BFB290F800C0DF5D521C674412B2077090
:1057D000102AECDBC288521C92B2C280A24202D3D1
:1057E000A2F58062C28092B2FFB29A5CBA423DD109
:1057F000284901620421418185810189A14202D3A6
:10580000A1F58061018189B25A5C016A01F8012B1E
:105810000289521C028101628189491C89B28181FD
:1058200042899142E9D31B49091D01620C21418142
:1058300085810189A14202D3A1F58061018189B2EC
:105840005A5C016A01F8012B0289521C0281016233
:105850008189491C89B2818142899142E9D3828838
:105860004169114441610121717004E0491C4161A9
:105870008169491CB161B288316930468A1A7169FF
:105880008A42BFF67FAF4078F0BD000030010020B3
:10589000100300202807002010B588B002A905A831
:1058A000FFF7E8FA032802D0012008B010BD6846CF
:1058B000FFF704F80598FAF703FF00990C46FAF78A
:1058C000FBFCFAF71CFF05900698FAF7F9FE214653
:1058D000FAF7F2FCFAF713FF06900798FAF7F0FED2
:1058E0002146FAF7E9FCFAF70AFF079005A8FEF748
:1058F0005FF801A8FEF7A6FFBDF804000299414336
:1059000002910399414303910499414302A80491F0
:10591000FDF7B0FF0020C8E72DE9F0410E4605462F
:105920000024094F0BE015F8011B3846FCF734FC46
:1059300080213846FCF79CFB0028F9D0641CB44257
:10594000F1DBBDE8F081000000440040F0B4184EE7
:10595000A520184B30700020187098700121D97064
:10596000D88106F10C0784B2C9B257F824007054EC
:105970007218050A5570050C9570000ED070091D3F
:10598000641CA0B2D970D8810228ECD301201A7807
:10599000315C401C114480B219700828F7D971722B
:1059A0005A20B072F0BC0B210148FFF7B5BF0000D0
:1059B0001007002030010020F8B5134C00232246C8
:1059C00094F82460D2E900125D1E56B190B1022015
:1059D0000DE01078C97B6B460122FBF725FE60B90C
:1059E0000DE0A67A4EB128B1607C58B901208DF83F
:1059F0000000EEE78DF80030EBE72846F8BD9DF893
:105A0000000060740020F8BDE800002000B5254BC0
:105A100021F0004287B09A4203DC00221346009234
:105A20002BE0214B9A4208D140B94FF00100FCF71E
:105A30000FFFFCF7EEFE07B000BD03DBFCF7E4FE52
:105A400007B000BD02AAFCF7D1FB10F003014FF034
:105A500001000DD0012914D002291AD00DF1080C33
:105A60009CE80F00FCF786FD07B081F0004100BD07
:105A70000DF1080C00909CE80F00FCF74FFE07B0FA
:105A800000BD0DF1080C9CE80F00FCF773FD07B09A
:105A900000BD0DF1080C00909CE80F00FCF73EFEE5
:105AA000E2E70000FB21E93F0000F07F2DE9F04133
:105AB00006460F46FAF7AAFF041E0D4618BF01203E
:105AC000284320F00040C0F17F6000F1E040C00FAB
:105AD0000ED0301C18BF0120384320F00040C0F128
